{
    "contractName": "Account",
    "abi": [
        {
            "anonymous": false,
            "inputs": [
                {
                    "indexed": true,
                    "internalType": "address",
                    "name": "userAddress",
                    "type": "address"
                },
                {
                    "indexed": false,
                    "internalType": "uint256",
                    "name": "index",
                    "type": "uint256"
                },
                {
                    "indexed": false,
                    "internalType": "bytes32",
                    "name": "userEmail",
                    "type": "bytes32"
                },
                {
                    "indexed": false,
                    "internalType": "uint256",
                    "name": "userAge",
                    "type": "uint256"
                }
            ],
            "name": "LogNewUser",
            "type": "event"
        },
        {
            "anonymous": false,
            "inputs": [
                {
                    "indexed": true,
                    "internalType": "address",
                    "name": "userAddress",
                    "type": "address"
                },
                {
                    "indexed": false,
                    "internalType": "uint256",
                    "name": "index",
                    "type": "uint256"
                },
                {
                    "indexed": false,
                    "internalType": "bytes32",
                    "name": "userEmail",
                    "type": "bytes32"
                },
                {
                    "indexed": false,
                    "internalType": "uint256",
                    "name": "userAge",
                    "type": "uint256"
                }
            ],
            "name": "LogUpdateUser",
            "type": "event"
        },
        {
            "inputs": [
                {
                    "internalType": "address",
                    "name": "userAddress",
                    "type": "address"
                }
            ],
            "name": "getUser",
            "outputs": [
                {
                    "internalType": "bytes32",
                    "name": "userEmail",
                    "type": "bytes32"
                },
                {
                    "internalType": "uint256",
                    "name": "userAge",
                    "type": "uint256"
                },
                {
                    "internalType": "uint256",
                    "name": "index",
                    "type": "uint256"
                }
            ],
            "stateMutability": "view",
            "type": "function"
        },
        {
            "inputs": [
                {
                    "internalType": "uint256",
                    "name": "index",
                    "type": "uint256"
                }
            ],
            "name": "getUserAtIndex",
            "outputs": [
                {
                    "internalType": "address",
                    "name": "userAddress",
                    "type": "address"
                }
            ],
            "stateMutability": "view",
            "type": "function"
        },
        {
            "inputs": [],
            "name": "getUserCount",
            "outputs": [
                {
                    "internalType": "uint256",
                    "name": "count",
                    "type": "uint256"
                }
            ],
            "stateMutability": "view",
            "type": "function"
        },
        {
            "inputs": [
                {
                    "internalType": "address",
                    "name": "userAddress",
                    "type": "address"
                },
                {
                    "internalType": "bytes32",
                    "name": "userEmail",
                    "type": "bytes32"
                },
                {
                    "internalType": "bytes32",
                    "name": "password",
                    "type": "bytes32"
                },
                {
                    "internalType": "uint256",
                    "name": "userAge",
                    "type": "uint256"
                }
            ],
            "name": "insertUser",
            "outputs": [
                {
                    "internalType": "uint256",
                    "name": "index",
                    "type": "uint256"
                }
            ],
            "stateMutability": "nonpayable",
            "type": "function"
        },
        {
            "inputs": [
                {
                    "internalType": "address",
                    "name": "userAddress",
                    "type": "address"
                }
            ],
            "name": "isUser",
            "outputs": [
                {
                    "internalType": "bool",
                    "name": "isIndeed",
                    "type": "bool"
                }
            ],
            "stateMutability": "view",
            "type": "function"
        },
        {
            "inputs": [
                {
                    "internalType": "address",
                    "name": "userAddress",
                    "type": "address"
                },
                {
                    "internalType": "uint256",
                    "name": "userAge",
                    "type": "uint256"
                }
            ],
            "name": "updateUserAge",
            "outputs": [
                {
                    "internalType": "bool",
                    "name": "success",
                    "type": "bool"
                }
            ],
            "stateMutability": "nonpayable",
            "type": "function"
        },
        {
            "inputs": [
                {
                    "internalType": "address",
                    "name": "userAddress",
                    "type": "address"
                },
                {
                    "internalType": "bytes32",
                    "name": "userEmail",
                    "type": "bytes32"
                }
            ],
            "name": "updateUserEmail",
            "outputs": [
                {
                    "internalType": "bool",
                    "name": "success",
                    "type": "bool"
                }
            ],
            "stateMutability": "nonpayable",
            "type": "function"
        }
    ],
    "bytecode": "608060405234801561001057600080fd5b50610582806100206000396000f3fe608060405234801561001057600080fd5b506004361061007d5760003560e01c80636f77926b1161005b5780636f77926b146100de57806381f1d75c1461010c578063b5cb15f71461011f578063ffcc7bbf1461012757600080fd5b80631045933a146100825780632e071db3146100a85780634209fff1146100cb575b600080fd5b6100956100903660046104a9565b610152565b6040519081526020015b60405180910390f35b6100bb6100b636600461047f565b61026a565b604051901515815260200161009f565b6100bb6100d936600461045d565b6102f3565b6100f16100ec36600461045d565b610352565b6040805193845260208401929092529082015260600161009f565b6100bb61011a36600461047f565b610398565b600254610095565b61013a6101353660046104e2565b610411565b6040516001600160a01b03909116815260200161009f565b600061015d856102f3565b61016957610169610520565b600084815260016020818152604080842080546001600160a01b038b166001600160a01b0319918216811790925581865292859052908420888155808401889055600290810187905580548085018255948190527f405787fa12a823e0f2b7631cc41b3ba8828b3321ca811111fa75cd3aa3bb5ace909401805490921617905590546101f591906104fb565b6001600160a01b03861660008181526020818152604091829020600301849055815193845283018790528201849052907f57f7301fe8e6f5b36f73ccce215bfaee0be1dda153d32992eb9ac05da86686119060600160405180910390a2600254610261906001906104fb565b95945050505050565b6000610275836102f3565b1561028257610282610520565b6001600160a01b0383166000818152602081815260409182902060028101869055600381015490548351918252918101919091529081018490527f24659ed7fa20faefd192de94aa063d3b6e668e49b0ca2738ca4d866db1ae9eee906060015b60405180910390a250600192915050565b60025460009061030557506000919050565b6001600160a01b03821660008181526020819052604090206003015460028054909190811061033657610336610536565b6000918252602090912001546001600160a01b03161492915050565b6000806000610360846102f3565b1561036d5761036d610520565b5050506001600160a01b03166000908152602081905260409020805460028201546003909201549092565b60006103a3836102f3565b156103b0576103b0610520565b6001600160a01b0383166000818152602081815260409182902085815560038101546002909101548351918252918101869052918201527f24659ed7fa20faefd192de94aa063d3b6e668e49b0ca2738ca4d866db1ae9eee906060016102e2565b60006002828154811061042657610426610536565b6000918252602090912001546001600160a01b031692915050565b80356001600160a01b038116811461045857600080fd5b919050565b60006020828403121561046f57600080fd5b61047882610441565b9392505050565b6000806040838503121561049257600080fd5b61049b83610441565b946020939093013593505050565b600080600080608085870312156104bf57600080fd5b6104c885610441565b966020860135965060408601359560600135945092505050565b6000602082840312156104f457600080fd5b5035919050565b60008282101561051b57634e487b7160e01b600052601160045260246000fd5b500390565b634e487b7160e01b600052600160045260246000fd5b634e487b7160e01b600052603260045260246000fdfea264697066735822122039008ec358c84dde388fabac9d0d96d8c3ca3efb97015e1b6edf7247365582ef64736f6c63430008070033",
    "sourcePath": "e:/Devendra/BlockChain/Code/e-voting-ethereum/contracts/User.sol",
    "compiler": {
        "name": "solc",
        "version": "0.8.7+commit.e28d00a7"
    },
    "functionHashes": {
        "getUser(address)": "6f77926b",
        "getUserAtIndex(uint256)": "ffcc7bbf",
        "getUserCount()": "b5cb15f7",
        "insertUser(address,bytes32,bytes32,uint256)": "1045933a",
        "isUser(address)": "4209fff1",
        "updateUserAge(address,uint256)": "2e071db3",
        "updateUserEmail(address,bytes32)": "81f1d75c"
    },
    "gasEstimates": {
        "creation": {
            "codeDepositCost": "282000",
            "executionCost": "324",
            "totalCost": "282324"
        },
        "external": {
            "getUser(address)": "15528",
            "getUserAtIndex(uint256)": "4685",
            "getUserCount()": "2325",
            "insertUser(address,bytes32,bytes32,uint256)": "infinite",
            "isUser(address)": "9058",
            "updateUserAge(address,uint256)": "37529",
            "updateUserEmail(address,bytes32)": "37530"
        }
    }
}