{
  "contractName": "Election",
  "abi": [
    {
      "inputs": [],
      "stateMutability": "nonpayable",
      "type": "constructor"
    },
    {
      "inputs": [],
      "name": "organizerAdmin",
      "outputs": [
        {
          "internalType": "address",
          "name": "",
          "type": "address"
        }
      ],
      "stateMutability": "view",
      "type": "function",
      "constant": true
    },
    {
      "inputs": [
        {
          "internalType": "address",
          "name": "toVoter",
          "type": "address"
        },
        {
          "internalType": "address",
          "name": "registerer",
          "type": "address"
        }
      ],
      "name": "Register",
      "outputs": [],
      "stateMutability": "nonpayable",
      "type": "function"
    },
    {
      "inputs": [
        {
          "internalType": "uint8",
          "name": "toProposal",
          "type": "uint8"
        },
        {
          "internalType": "address",
          "name": "voterAddr",
          "type": "address"
        }
      ],
      "name": "Vote",
      "outputs": [],
      "stateMutability": "nonpayable",
      "type": "function"
    },
    {
      "inputs": [],
      "name": "Winner",
      "outputs": [
        {
          "internalType": "uint256",
          "name": "_winningProposal",
          "type": "uint256"
        }
      ],
      "stateMutability": "view",
      "type": "function",
      "constant": true
    }
  ],
  "bytecode": "0x608060405234801561001057600080fd5b50336000806101000a81548173ffffffffffffffffffffffffffffffffffffffff021916908373ffffffffffffffffffffffffffffffffffffffff16021790555060018060008060009054906101000a900473ffffffffffffffffffffffffffffffffffffffff1673ffffffffffffffffffffffffffffffffffffffff1673ffffffffffffffffffffffffffffffffffffffff168152602001908152602001600020600001819055506000600160008060009054906101000a900473ffffffffffffffffffffffffffffffffffffffff1673ffffffffffffffffffffffffffffffffffffffff1673ffffffffffffffffffffffffffffffffffffffff16815260200190815260200160002060010160016101000a81548160ff021916908315150217905550610685806101446000396000f3fe608060405234801561001057600080fd5b5060043610610069576000357c01000000000000000000000000000000000000000000000000000000009004806325e98c8f1461006e57806357ecf93b1461008c57806398ada70a146100a8578063b2b98ed2146100c4575b600080fd5b6100766100e2565b60405161008391906104a0565b60405180910390f35b6100a660048036038101906100a19190610442565b610106565b005b6100c260048036038101906100bd9190610402565b61021d565b005b6100cc610374565b6040516100d991906104bb565b60405180910390f35b60008054906101000a900473ffffffffffffffffffffffffffffffffffffffff1681565b6000600160008373ffffffffffffffffffffffffffffffffffffffff1673ffffffffffffffffffffffffffffffffffffffff168152602001908152602001600020604051806060016040529081600082015481526020016001820160009054906101000a900460ff1660ff1660ff1681526020016001820160019054906101000a900460ff16151515158152505090508060400151806101a9575060048360ff16115b806101b8575060008160000151145b156101c257600080fd5b600181604001901515908115158152505082816020019060ff16908160ff1681525050806000015160028460ff1660048110610201576102006105ed565b5b01600082825461021191906104d6565b92505081905550505050565b600160008373ffffffffffffffffffffffffffffffffffffffff1673ffffffffffffffffffffffffffffffffffffffff16815260200190815260200160002060010160019054906101000a900460ff16806102c4575060008054906101000a900473ffffffffffffffffffffffffffffffffffffffff1673ffffffffffffffffffffffffffffffffffffffff168173ffffffffffffffffffffffffffffffffffffffff1614155b156102ce57600080fd5b6000600160008473ffffffffffffffffffffffffffffffffffffffff1673ffffffffffffffffffffffffffffffffffffffff16815260200190815260200160002060010160016101000a81548160ff02191690831515021790555060018060008473ffffffffffffffffffffffffffffffffffffffff1673ffffffffffffffffffffffffffffffffffffffff168152602001908152602001600020600001819055505050565b6000806000905060005b60048110156103d357816002826004811061039c5761039b6105ed565b5b015411156103c057600281600481106103b8576103b76105ed565b5b015491508092505b80806103cb90610575565b91505061037e565b505090565b6000813590506103e781610621565b92915050565b6000813590506103fc81610638565b92915050565b600080604083850312156104195761041861061c565b5b6000610427858286016103d8565b9250506020610438858286016103d8565b9150509250929050565b600080604083850312156104595761045861061c565b5b6000610467858286016103ed565b9250506020610478858286016103d8565b9150509250929050565b61048b8161052c565b82525050565b61049a8161055e565b82525050565b60006020820190506104b56000830184610482565b92915050565b60006020820190506104d06000830184610491565b92915050565b60006104e18261055e565b91506104ec8361055e565b9250827fffffffffffffffffffffffffffffffffffffffffffffffffffffffffffffffff03821115610521576105206105be565b5b828201905092915050565b60006105378261053e565b9050919050565b600073ffffffffffffffffffffffffffffffffffffffff82169050919050565b6000819050919050565b600060ff82169050919050565b60006105808261055e565b91507fffffffffffffffffffffffffffffffffffffffffffffffffffffffffffffffff8214156105b3576105b26105be565b5b600182019050919050565b7f4e487b7100000000000000000000000000000000000000000000000000000000600052601160045260246000fd5b7f4e487b7100000000000000000000000000000000000000000000000000000000600052603260045260246000fd5b600080fd5b61062a8161052c565b811461063557600080fd5b50565b61064181610568565b811461064c57600080fd5b5056fea26469706673582212201101da056dc8eea30bf98c215eefbd54e6b79931cd6e5c8372e5260110d2434a64736f6c63430008070033",
  "immutableReferences": {},
  "source": "pragma solidity ^0.8.7;\r\ncontract Election{\r\n    struct Voter{\r\n        uint weight ;\r\n        uint8 vote ;\r\n        bool isVoted ;\r\n    }\r\n\r\n    address public organizerAdmin ;\r\n    mapping(address => Voter) voters ;\r\n    uint[4] proposals ;\r\n\r\n    modifier onlySupperAdmin(){\r\n       require(msg.sender == organizerAdmin);\r\n       _;\r\n    }\r\n\r\n    constructor() public{\r\n        organizerAdmin = msg.sender ;\r\n        voters[organizerAdmin].weight = 1 ;\r\n        voters[organizerAdmin].isVoted = false ;\r\n    }\r\n\r\n    function Register(address toVoter,address registerer) public {\r\n        if(voters[toVoter].isVoted || registerer != organizerAdmin) revert() ;\r\n        voters[toVoter].isVoted = false ;\r\n        voters[toVoter].weight = 1 ;\r\n    }\r\n\r\n    function Vote(uint8 toProposal, address voterAddr) public{\r\n        Voter memory sender = voters[voterAddr] ;\r\n        if(sender.isVoted || toProposal>proposals.length || sender.weight == 0) revert() ;\r\n        sender.isVoted = true ;\r\n        sender.vote = toProposal ;\r\n        proposals[toProposal] += sender.weight ;\r\n    }\r\n\r\n    function Winner() public view returns(uint _winningProposal){\r\n        uint winningVoteCount = 0 ;\r\n        for(uint prop=0;prop<4;prop++){\r\n            if(proposals[prop] > winningVoteCount){\r\n                winningVoteCount = proposals[prop] ;\r\n                _winningProposal = prop ;\r\n            }\r\n        }\r\n    }\r\n}",
  "sourcePath": "E:/Devendra/BlockChain/Code/e-voting-ethereum/contracts/Election.sol",
  "compiler": {
    "name": "solc",
    "version": "0.8.7+commit.e28d00a7.Emscripten.clang"
  },
  "schemaVersion": "3.4.1",
  "updatedAt": "2021-09-17T03:57:45.402Z",
  "networkType": "ethereum",
  "devdoc": {
    "kind": "dev",
    "methods": {},
    "version": 1
  },
  "userdoc": {
    "kind": "user",
    "methods": {},
    "version": 1
  }
}