{
  "contractName": "Election",
  "abi": [
    {
      "inputs": [],
      "stateMutability": "nonpayable",
      "type": "constructor"
    },
    {
      "anonymous": false,
      "inputs": [
        {
          "indexed": true,
          "internalType": "address",
          "name": "userAddress",
          "type": "address"
        }
      ],
      "name": "LogAnnouncedWinner",
      "type": "event"
    },
    {
      "anonymous": false,
      "inputs": [
        {
          "indexed": false,
          "internalType": "string",
          "name": "msg",
          "type": "string"
        },
        {
          "indexed": false,
          "internalType": "uint8",
          "name": "totalVoters",
          "type": "uint8"
        }
      ],
      "name": "LogGetTotalVoters",
      "type": "event"
    },
    {
      "anonymous": false,
      "inputs": [
        {
          "indexed": false,
          "internalType": "string",
          "name": "msg",
          "type": "string"
        },
        {
          "indexed": false,
          "internalType": "uint8",
          "name": "totalVotes",
          "type": "uint8"
        }
      ],
      "name": "LogGetTotalVotes",
      "type": "event"
    },
    {
      "anonymous": false,
      "inputs": [
        {
          "indexed": false,
          "internalType": "address",
          "name": "toVoter",
          "type": "address"
        },
        {
          "indexed": false,
          "internalType": "address",
          "name": "registerer",
          "type": "address"
        }
      ],
      "name": "LogRegister",
      "type": "event"
    },
    {
      "anonymous": false,
      "inputs": [
        {
          "indexed": true,
          "internalType": "address",
          "name": "userAddress",
          "type": "address"
        },
        {
          "indexed": false,
          "internalType": "uint8",
          "name": "index",
          "type": "uint8"
        }
      ],
      "name": "LogVote",
      "type": "event"
    },
    {
      "inputs": [],
      "name": "isWinnerAnnounced",
      "outputs": [
        {
          "internalType": "bool",
          "name": "",
          "type": "bool"
        }
      ],
      "stateMutability": "view",
      "type": "function",
      "constant": true
    },
    {
      "inputs": [],
      "name": "organizerAdmin",
      "outputs": [
        {
          "internalType": "address",
          "name": "",
          "type": "address"
        }
      ],
      "stateMutability": "view",
      "type": "function",
      "constant": true
    },
    {
      "inputs": [],
      "name": "totalVoters",
      "outputs": [
        {
          "internalType": "uint8",
          "name": "",
          "type": "uint8"
        }
      ],
      "stateMutability": "view",
      "type": "function",
      "constant": true
    },
    {
      "inputs": [],
      "name": "totalVotes",
      "outputs": [
        {
          "internalType": "uint8",
          "name": "",
          "type": "uint8"
        }
      ],
      "stateMutability": "view",
      "type": "function",
      "constant": true
    },
    {
      "inputs": [
        {
          "internalType": "address",
          "name": "voterAddress",
          "type": "address"
        },
        {
          "internalType": "bool",
          "name": "kyc",
          "type": "bool"
        }
      ],
      "name": "updateKYCStatus",
      "outputs": [],
      "stateMutability": "nonpayable",
      "type": "function"
    },
    {
      "inputs": [
        {
          "internalType": "address",
          "name": "toVoter",
          "type": "address"
        },
        {
          "internalType": "address",
          "name": "registerer",
          "type": "address"
        }
      ],
      "name": "Register",
      "outputs": [],
      "stateMutability": "nonpayable",
      "type": "function"
    },
    {
      "inputs": [],
      "name": "getTotalVoters",
      "outputs": [
        {
          "internalType": "uint8",
          "name": "_total",
          "type": "uint8"
        }
      ],
      "stateMutability": "nonpayable",
      "type": "function"
    },
    {
      "inputs": [],
      "name": "getTotalVotes",
      "outputs": [
        {
          "internalType": "uint8",
          "name": "_total",
          "type": "uint8"
        }
      ],
      "stateMutability": "nonpayable",
      "type": "function"
    },
    {
      "inputs": [
        {
          "internalType": "uint256",
          "name": "candidateId",
          "type": "uint256"
        }
      ],
      "name": "getCandidateVote",
      "outputs": [
        {
          "internalType": "uint256",
          "name": "_vote",
          "type": "uint256"
        }
      ],
      "stateMutability": "view",
      "type": "function",
      "constant": true
    },
    {
      "inputs": [
        {
          "internalType": "uint8",
          "name": "toProposal",
          "type": "uint8"
        },
        {
          "internalType": "address",
          "name": "voterAddr",
          "type": "address"
        }
      ],
      "name": "Vote",
      "outputs": [],
      "stateMutability": "nonpayable",
      "type": "function"
    },
    {
      "inputs": [],
      "name": "Winner",
      "outputs": [
        {
          "internalType": "uint256",
          "name": "_winningProposal",
          "type": "uint256"
        }
      ],
      "stateMutability": "view",
      "type": "function",
      "constant": true
    },
    {
      "inputs": [],
      "name": "announcedWinner",
      "outputs": [],
      "stateMutability": "nonpayable",
      "type": "function"
    }
  ],
  "bytecode": "0x608060405234801561001057600080fd5b50336000806101000a81548173ffffffffffffffffffffffffffffffffffffffff021916908373ffffffffffffffffffffffffffffffffffffffff16021790555060018060008060009054906101000a900473ffffffffffffffffffffffffffffffffffffffff1673ffffffffffffffffffffffffffffffffffffffff1673ffffffffffffffffffffffffffffffffffffffff168152602001908152602001600020600001819055506000600160008060009054906101000a900473ffffffffffffffffffffffffffffffffffffffff1673ffffffffffffffffffffffffffffffffffffffff1673ffffffffffffffffffffffffffffffffffffffff16815260200190815260200160002060010160016101000a81548160ff0219169083151502179055506000600260006101000a81548160ff021916908315150217905550610fc68061015f6000396000f3fe608060405234801561001057600080fd5b50600436106100d1576000357c010000000000000000000000000000000000000000000000000000000090048063630843441161008e5780636308434414610186578063793cf218146101905780637c89d4d1146101ae57806398ada70a146101de5780639a0e7d66146101fa578063b2b98ed214610218576100d1565b80630d15fd77146100d657806325e98c8f146100f457806343e401111461011257806353df9d761461013057806357ecf93b1461014c5780635f5300ff14610168575b600080fd5b6100de610236565b6040516100eb9190610d2f565b60405180910390f35b6100fc610249565b6040516101099190610c87565b60405180910390f35b61011a61026d565b6040516101279190610ccb565b60405180910390f35b61014a60048036038101906101459190610b7b565b610280565b005b61016660048036038101906101619190610be8565b610337565b005b6101706105e9565b60405161017d9190610d2f565b60405180910390f35b61018e6105fc565b005b6101986106d4565b6040516101a59190610d2f565b60405180910390f35b6101c860048036038101906101c39190610bbb565b610731565b6040516101d59190610d14565b60405180910390f35b6101f860048036038101906101f39190610b3b565b6107ae565b005b610202610a26565b60405161020f9190610d2f565b60405180910390f35b610220610a83565b60405161022d9190610d14565b60405180910390f35b600660019054906101000a900460ff1681565b60008054906101000a900473ffffffffffffffffffffffffffffffffffffffff1681565b600260009054906101000a900460ff1681565b600160008373ffffffffffffffffffffffffffffffffffffffff1673ffffffffffffffffffffffffffffffffffffffff16815260200190815260200160002060010160029054906101000a900460ff166102d957600080fd5b80600160008473ffffffffffffffffffffffffffffffffffffffff1673ffffffffffffffffffffffffffffffffffffffff16815260200190815260200160002060010160036101000a81548160ff0219169083151502179055505050565b6000600160008373ffffffffffffffffffffffffffffffffffffffff1673ffffffffffffffffffffffffffffffffffffffff1681526020019081526020016000206040518060a0016040529081600082015481526020016001820160009054906101000a900460ff1660ff1660ff1681526020016001820160019054906101000a900460ff161515151581526020016001820160029054906101000a900460ff161515151581526020016001820160039054906101000a900460ff161515151581525050905060038360ff161180610413575060008160000151145b1561041d57600080fd5b80604001511561042c57600080fd5b806060015161043a57600080fd5b600181604001901515908115158152505082816020019060ff16908160ff1681525050806000015160038460ff166003811061047957610478610ed7565b5b0160008282546104899190610d5b565b9250508190555080600160008473ffffffffffffffffffffffffffffffffffffffff1673ffffffffffffffffffffffffffffffffffffffff1681526020019081526020016000206000820151816000015560208201518160010160006101000a81548160ff021916908360ff16021790555060408201518160010160016101000a81548160ff02191690831515021790555060608201518160010160026101000a81548160ff02191690831515021790555060808201518160010160036101000a81548160ff0219169083151502179055509050506006600181819054906101000a900460ff168092919061057d90610e4f565b91906101000a81548160ff021916908360ff160217905550508173ffffffffffffffffffffffffffffffffffffffff167f4d8f481076026405de6e8495dba2bfdac52bae33294ee1a9e866de16c2090111846040516105dc9190610d2f565b60405180910390a2505050565b600660009054906101000a900460ff1681565b3373ffffffffffffffffffffffffffffffffffffffff1660008054906101000a900473ffffffffffffffffffffffffffffffffffffffff1673ffffffffffffffffffffffffffffffffffffffff161461065457600080fd5b6001600260006101000a81548160ff02191690831515021790555060008054906101000a900473ffffffffffffffffffffffffffffffffffffffff1673ffffffffffffffffffffffffffffffffffffffff167f16edb846c5fc9af758083d70b470098b9aef4882e9b9ee05977e75c6de678d3860405160405180910390a2565b6000600660009054906101000a900460ff1690507f65be0841e36df9c710eefc4b28dc17aed021e494f2941d9667df2b5c3f6f3ec4600660009054906101000a900460ff166040516107269190610ce6565b60405180910390a190565b60008060009054906101000a900473ffffffffffffffffffffffffffffffffffffffff1673ffffffffffffffffffffffffffffffffffffffff163373ffffffffffffffffffffffffffffffffffffffff16141561079157610790610e79565b5b600382600381106107a5576107a4610ed7565b5b01549050919050565b600160008373ffffffffffffffffffffffffffffffffffffffff1673ffffffffffffffffffffffffffffffffffffffff16815260200190815260200160002060010160019054906101000a900460ff16806108555750600160008373ffffffffffffffffffffffffffffffffffffffff1673ffffffffffffffffffffffffffffffffffffffff16815260200190815260200160002060010160029054906101000a900460ff165b806108ac575060008054906101000a900473ffffffffffffffffffffffffffffffffffffffff1673ffffffffffffffffffffffffffffffffffffffff168173ffffffffffffffffffffffffffffffffffffffff1614155b156108b657600080fd5b6000600160008473ffffffffffffffffffffffffffffffffffffffff1673ffffffffffffffffffffffffffffffffffffffff16815260200190815260200160002060010160016101000a81548160ff02191690831515021790555060018060008473ffffffffffffffffffffffffffffffffffffffff1673ffffffffffffffffffffffffffffffffffffffff16815260200190815260200160002060010160026101000a81548160ff0219169083151502179055506006600081819054906101000a900460ff168092919061098a90610e4f565b91906101000a81548160ff021916908360ff1602179055505060018060008473ffffffffffffffffffffffffffffffffffffffff1673ffffffffffffffffffffffffffffffffffffffff168152602001908152602001600020600001819055507e5ab803e87da373a5008f0ff2cb6547d35bb33120fe7aa5521b286b97a16b9e8282604051610a1a929190610ca2565b60405180910390a15050565b6000600660019054906101000a900460ff1690507f9668f671e8fb48a7fce95c7fa3e14c2b53e3ee8dfefab1e900335dc53bb7022b600660019054906101000a900460ff16604051610a789190610ce6565b60405180910390a190565b6000806000905060005b6003811015610ae2578160038260038110610aab57610aaa610ed7565b5b01541115610acf5760038160038110610ac757610ac6610ed7565b5b015491508092505b8080610ada90610e06565b915050610a8d565b505090565b600081359050610af681610f34565b92915050565b600081359050610b0b81610f4b565b92915050565b600081359050610b2081610f62565b92915050565b600081359050610b3581610f79565b92915050565b60008060408385031215610b5257610b51610f06565b5b6000610b6085828601610ae7565b9250506020610b7185828601610ae7565b9150509250929050565b60008060408385031215610b9257610b91610f06565b5b6000610ba085828601610ae7565b9250506020610bb185828601610afc565b9150509250929050565b600060208284031215610bd157610bd0610f06565b5b6000610bdf84828501610b11565b91505092915050565b60008060408385031215610bff57610bfe610f06565b5b6000610c0d85828601610b26565b9250506020610c1e85828601610ae7565b9150509250929050565b610c3181610db1565b82525050565b610c4081610dc3565b82525050565b6000610c53601183610d4a565b9150610c5e82610f0b565b602082019050919050565b610c7281610def565b82525050565b610c8181610df9565b82525050565b6000602082019050610c9c6000830184610c28565b92915050565b6000604082019050610cb76000830185610c28565b610cc46020830184610c28565b9392505050565b6000602082019050610ce06000830184610c37565b92915050565b60006040820190508181036000830152610cff81610c46565b9050610d0e6020830184610c78565b92915050565b6000602082019050610d296000830184610c69565b92915050565b6000602082019050610d446000830184610c78565b92915050565b600082825260208201905092915050565b6000610d6682610def565b9150610d7183610def565b9250827fffffffffffffffffffffffffffffffffffffffffffffffffffffffffffffffff03821115610da657610da5610ea8565b5b828201905092915050565b6000610dbc82610dcf565b9050919050565b60008115159050919050565b600073ffffffffffffffffffffffffffffffffffffffff82169050919050565b6000819050919050565b600060ff82169050919050565b6000610e1182610def565b91507fffffffffffffffffffffffffffffffffffffffffffffffffffffffffffffffff821415610e4457610e43610ea8565b5b600182019050919050565b6000610e5a82610df9565b915060ff821415610e6e57610e6d610ea8565b5b600182019050919050565b7f4e487b7100000000000000000000000000000000000000000000000000000000600052600160045260246000fd5b7f4e487b7100000000000000000000000000000000000000000000000000000000600052601160045260246000fd5b7f4e487b7100000000000000000000000000000000000000000000000000000000600052603260045260246000fd5b600080fd5b7f546f74616c20566f746573206576656e74000000000000000000000000000000600082015250565b610f3d81610db1565b8114610f4857600080fd5b50565b610f5481610dc3565b8114610f5f57600080fd5b50565b610f6b81610def565b8114610f7657600080fd5b50565b610f8281610df9565b8114610f8d57600080fd5b5056fea26469706673582212207bd13c101475a05be42471dced1453cb5c20b0ac0027f83ab2754502b66b94cf64736f6c63430008070033",
  "immutableReferences": {},
  "source": "pragma solidity ^0.8.7;\ncontract Election{\n    struct Voter{\n        uint weight ;\n        uint8 vote ;\n        bool isVoted ;\n        bool isRegister;\n        bool isKYC;\n    }\n\n    address public organizerAdmin ;\n    mapping(address => Voter) voters ;\n    bool public isWinnerAnnounced;\n    uint[3] proposals ;\n    uint8 public totalVoters ;\n    uint8 public totalVotes;\n\n    event LogVote (address indexed userAddress, uint8 index);\n    event LogRegister(address toVoter,address registerer);\n    event LogGetTotalVotes(string  msg, uint8 totalVotes);\n    event LogGetTotalVoters(string  msg, uint8 totalVoters);\n    event LogAnnouncedWinner (address indexed userAddress);\n\n    modifier onlySupperAdmin(){\n       require(msg.sender == organizerAdmin);\n       totalVoters =0;\n       totalVotes =0;\n       _;\n    }\n\n    constructor() public{\n        organizerAdmin = msg.sender ;\n        voters[organizerAdmin].weight = 1 ;\n        voters[organizerAdmin].isVoted = false ;\n        isWinnerAnnounced = false;\n    }\n\n    function updateKYCStatus(address voterAddress, bool  kyc) public  {\n         if(!voters[voterAddress].isRegister) {\n            revert();\n         }else {\n            voters[voterAddress].isKYC = kyc;\n         }\n    }\n\n    function Register(address toVoter,address registerer) public{\n        if(voters[toVoter].isVoted || voters[toVoter].isRegister  || registerer != organizerAdmin) {\n            revert() ;\n        } else {\n            voters[toVoter].isVoted = false ;\n            voters[toVoter].isRegister = true;\n            totalVoters++;\n            voters[toVoter].weight = 1 ;\n            emit LogRegister(toVoter,registerer);\n        }\n\n    }\n    function getTotalVoters() public  returns(uint8 _total){\n         _total = totalVoters;\n         emit LogGetTotalVoters( \"Total Votes event\",  totalVoters);\n    }\n\n    function getTotalVotes() public  returns(uint8 _total){\n         _total =  totalVotes;\n         emit LogGetTotalVotes( \"Total Votes event\",  totalVotes);\n    }\n    function getCandidateVote(uint candidateId) public view returns( uint _vote) {\n        assert(msg.sender != organizerAdmin);\n        _vote = proposals[candidateId];\n    }\n    /*\n     ResponseCode 1 - Success\n     ResponseCode 0 - Not Register\n     ResponseCode 2 - Already voted\n     ResponseCode 3 - KYC is pendding\n    */\n    function Vote(uint8 toProposal, address voterAddr) public {\n        Voter memory sender = voters[voterAddr] ;\n        if( toProposal>proposals.length || sender.weight == 0) {\n            revert();\n        }\n        if(sender.isVoted) {\n            revert();\n     //  } else if(!sender.isKYC) {\n    //     revert();\n        }else if(!sender.isRegister){\n            revert();\n        } else {\n            sender.isVoted = true ;\n            sender.vote = toProposal ;\n            proposals[toProposal] += sender.weight ;\n            voters[voterAddr]  = sender;\n            totalVotes++;\n            emit LogVote(voterAddr,toProposal);\n        }\n    }\n\n\n    function Winner() public view returns(uint _winningProposal){\n        uint winningVoteCount = 0 ;\n        for(uint prop=0;prop<3;prop++){\n            if(proposals[prop] > winningVoteCount){\n                winningVoteCount = proposals[prop] ;\n                _winningProposal = prop ;\n            }\n        }\n        \n    }\n\n    function announcedWinner()  public{\n        if(organizerAdmin != msg.sender) {\n            revert();\n        }\n        isWinnerAnnounced = true;\n        emit LogAnnouncedWinner (  organizerAdmin);\n    }\n}",
  "sourcePath": "E:/Devendra/BlockChain/Code/e-voting-ethereum/contracts/Election.sol",
  "compiler": {
    "name": "solc",
    "version": "0.8.7+commit.e28d00a7.Emscripten.clang"
  },
  "schemaVersion": "3.4.1",
  "updatedAt": "2021-09-24T16:48:00.589Z",
  "networkType": "ethereum",
  "devdoc": {
    "kind": "dev",
    "methods": {},
    "version": 1
  },
  "userdoc": {
    "kind": "user",
    "methods": {},
    "version": 1
  }
}