{
  "contractName": "Election",
  "abi": [
    {
      "inputs": [],
      "stateMutability": "nonpayable",
      "type": "constructor"
    },
    {
      "anonymous": false,
      "inputs": [
        {
          "indexed": false,
          "internalType": "string",
          "name": "msg",
          "type": "string"
        },
        {
          "indexed": false,
          "internalType": "uint8",
          "name": "totalVoters",
          "type": "uint8"
        }
      ],
      "name": "LogGetTotalVoters",
      "type": "event"
    },
    {
      "anonymous": false,
      "inputs": [
        {
          "indexed": false,
          "internalType": "string",
          "name": "msg",
          "type": "string"
        },
        {
          "indexed": false,
          "internalType": "uint8",
          "name": "totalVotes",
          "type": "uint8"
        }
      ],
      "name": "LogGetTotalVotes",
      "type": "event"
    },
    {
      "anonymous": false,
      "inputs": [
        {
          "indexed": false,
          "internalType": "address",
          "name": "toVoter",
          "type": "address"
        },
        {
          "indexed": false,
          "internalType": "address",
          "name": "registerer",
          "type": "address"
        }
      ],
      "name": "LogRegister",
      "type": "event"
    },
    {
      "anonymous": false,
      "inputs": [
        {
          "indexed": true,
          "internalType": "address",
          "name": "userAddress",
          "type": "address"
        },
        {
          "indexed": false,
          "internalType": "uint8",
          "name": "index",
          "type": "uint8"
        }
      ],
      "name": "LogVote",
      "type": "event"
    },
    {
      "inputs": [],
      "name": "organizerAdmin",
      "outputs": [
        {
          "internalType": "address",
          "name": "",
          "type": "address"
        }
      ],
      "stateMutability": "view",
      "type": "function",
      "constant": true
    },
    {
      "inputs": [],
      "name": "totalVoters",
      "outputs": [
        {
          "internalType": "uint8",
          "name": "",
          "type": "uint8"
        }
      ],
      "stateMutability": "view",
      "type": "function",
      "constant": true
    },
    {
      "inputs": [],
      "name": "totalVotes",
      "outputs": [
        {
          "internalType": "uint8",
          "name": "",
          "type": "uint8"
        }
      ],
      "stateMutability": "view",
      "type": "function",
      "constant": true
    },
    {
      "inputs": [
        {
          "internalType": "address",
          "name": "toVoter",
          "type": "address"
        },
        {
          "internalType": "address",
          "name": "registerer",
          "type": "address"
        }
      ],
      "name": "Register",
      "outputs": [],
      "stateMutability": "nonpayable",
      "type": "function"
    },
    {
      "inputs": [],
      "name": "getTotalVoters",
      "outputs": [
        {
          "internalType": "uint8",
          "name": "_total",
          "type": "uint8"
        }
      ],
      "stateMutability": "nonpayable",
      "type": "function"
    },
    {
      "inputs": [],
      "name": "getTotalVotes",
      "outputs": [
        {
          "internalType": "uint8",
          "name": "_total",
          "type": "uint8"
        }
      ],
      "stateMutability": "nonpayable",
      "type": "function"
    },
    {
      "inputs": [
        {
          "internalType": "uint256",
          "name": "candidateId",
          "type": "uint256"
        }
      ],
      "name": "getCandidateVote",
      "outputs": [
        {
          "internalType": "uint256",
          "name": "_vote",
          "type": "uint256"
        }
      ],
      "stateMutability": "view",
      "type": "function",
      "constant": true
    },
    {
      "inputs": [
        {
          "internalType": "uint8",
          "name": "toProposal",
          "type": "uint8"
        },
        {
          "internalType": "address",
          "name": "voterAddr",
          "type": "address"
        }
      ],
      "name": "Vote",
      "outputs": [],
      "stateMutability": "nonpayable",
      "type": "function"
    },
    {
      "inputs": [],
      "name": "Winner",
      "outputs": [
        {
          "internalType": "uint256",
          "name": "_winningProposal",
          "type": "uint256"
        }
      ],
      "stateMutability": "view",
      "type": "function",
      "constant": true
    }
  ],
  "bytecode": "0x608060405234801561001057600080fd5b50336000806101000a81548173ffffffffffffffffffffffffffffffffffffffff021916908373ffffffffffffffffffffffffffffffffffffffff16021790555060018060008060009054906101000a900473ffffffffffffffffffffffffffffffffffffffff1673ffffffffffffffffffffffffffffffffffffffff1673ffffffffffffffffffffffffffffffffffffffff168152602001908152602001600020600001819055506000600160008060009054906101000a900473ffffffffffffffffffffffffffffffffffffffff1673ffffffffffffffffffffffffffffffffffffffff1673ffffffffffffffffffffffffffffffffffffffff16815260200190815260200160002060010160016101000a81548160ff021916908315150217905550610cde806101446000396000f3fe608060405234801561001057600080fd5b50600436106100b0576000357c010000000000000000000000000000000000000000000000000000000090048063793cf21811610083578063793cf2181461012b5780637c89d4d11461014957806398ada70a146101795780639a0e7d6614610195578063b2b98ed2146101b3576100b0565b80630d15fd77146100b557806325e98c8f146100d357806357ecf93b146100f15780635f5300ff1461010d575b600080fd5b6100bd6101d1565b6040516100ca9190610a6a565b60405180910390f35b6100db6101e4565b6040516100e891906109dd565b60405180910390f35b61010b6004803603810190610106919061094d565b610208565b005b61011561047b565b6040516101229190610a6a565b60405180910390f35b61013361048e565b6040516101409190610a6a565b60405180910390f35b610163600480360381019061015e9190610920565b6104eb565b6040516101709190610a4f565b60405180910390f35b610193600480360381019061018e91906108e0565b610568565b005b61019d6107e0565b6040516101aa9190610a6a565b60405180910390f35b6101bb61083d565b6040516101c89190610a4f565b60405180910390f35b600560019054906101000a900460ff1681565b60008054906101000a900473ffffffffffffffffffffffffffffffffffffffff1681565b6000600160008373ffffffffffffffffffffffffffffffffffffffff1673ffffffffffffffffffffffffffffffffffffffff168152602001908152602001600020604051806080016040529081600082015481526020016001820160009054906101000a900460ff1660ff1660ff1681526020016001820160019054906101000a900460ff161515151581526020016001820160029054906101000a900460ff16151515158152505090508060400151806102c557508060600151155b806102d3575060038360ff16115b806102e2575060008160000151145b156102ec57600080fd5b600181604001901515908115158152505082816020019060ff16908160ff1681525050806000015160028460ff166003811061032b5761032a610c06565b5b01600082825461033b9190610a96565b9250508190555080600160008473ffffffffffffffffffffffffffffffffffffffff1673ffffffffffffffffffffffffffffffffffffffff1681526020019081526020016000206000820151816000015560208201518160010160006101000a81548160ff021916908360ff16021790555060408201518160010160016101000a81548160ff02191690831515021790555060608201518160010160026101000a81548160ff0219169083151502179055509050506005600181819054906101000a900460ff168092919061040f90610b7e565b91906101000a81548160ff021916908360ff160217905550508173ffffffffffffffffffffffffffffffffffffffff167f4d8f481076026405de6e8495dba2bfdac52bae33294ee1a9e866de16c20901118460405161046e9190610a6a565b60405180910390a2505050565b600560009054906101000a900460ff1681565b6000600560009054906101000a900460ff1690507f65be0841e36df9c710eefc4b28dc17aed021e494f2941d9667df2b5c3f6f3ec4600560009054906101000a900460ff166040516104e09190610a21565b60405180910390a190565b60008060009054906101000a900473ffffffffffffffffffffffffffffffffffffffff1673ffffffffffffffffffffffffffffffffffffffff163373ffffffffffffffffffffffffffffffffffffffff16141561054b5761054a610ba8565b5b6002826003811061055f5761055e610c06565b5b01549050919050565b600160008373ffffffffffffffffffffffffffffffffffffffff1673ffffffffffffffffffffffffffffffffffffffff16815260200190815260200160002060010160019054906101000a900460ff168061060f5750600160008373ffffffffffffffffffffffffffffffffffffffff1673ffffffffffffffffffffffffffffffffffffffff16815260200190815260200160002060010160029054906101000a900460ff165b80610666575060008054906101000a900473ffffffffffffffffffffffffffffffffffffffff1673ffffffffffffffffffffffffffffffffffffffff168173ffffffffffffffffffffffffffffffffffffffff1614155b1561067057600080fd5b6000600160008473ffffffffffffffffffffffffffffffffffffffff1673ffffffffffffffffffffffffffffffffffffffff16815260200190815260200160002060010160016101000a81548160ff02191690831515021790555060018060008473ffffffffffffffffffffffffffffffffffffffff1673ffffffffffffffffffffffffffffffffffffffff16815260200190815260200160002060010160026101000a81548160ff0219169083151502179055506005600081819054906101000a900460ff168092919061074490610b7e565b91906101000a81548160ff021916908360ff1602179055505060018060008473ffffffffffffffffffffffffffffffffffffffff1673ffffffffffffffffffffffffffffffffffffffff168152602001908152602001600020600001819055507e5ab803e87da373a5008f0ff2cb6547d35bb33120fe7aa5521b286b97a16b9e82826040516107d49291906109f8565b60405180910390a15050565b6000600560019054906101000a900460ff1690507f9668f671e8fb48a7fce95c7fa3e14c2b53e3ee8dfefab1e900335dc53bb7022b600560019054906101000a900460ff166040516108329190610a21565b60405180910390a190565b6000806000905060005b600381101561089c57816002826003811061086557610864610c06565b5b01541115610889576002816003811061088157610880610c06565b5b015491508092505b808061089490610b35565b915050610847565b505090565b6000813590506108b081610c63565b92915050565b6000813590506108c581610c7a565b92915050565b6000813590506108da81610c91565b92915050565b600080604083850312156108f7576108f6610c35565b5b6000610905858286016108a1565b9250506020610916858286016108a1565b9150509250929050565b60006020828403121561093657610935610c35565b5b6000610944848285016108b6565b91505092915050565b6000806040838503121561096457610963610c35565b5b6000610972858286016108cb565b9250506020610983858286016108a1565b9150509250929050565b61099681610aec565b82525050565b60006109a9601183610a85565b91506109b482610c3a565b602082019050919050565b6109c881610b1e565b82525050565b6109d781610b28565b82525050565b60006020820190506109f2600083018461098d565b92915050565b6000604082019050610a0d600083018561098d565b610a1a602083018461098d565b9392505050565b60006040820190508181036000830152610a3a8161099c565b9050610a4960208301846109ce565b92915050565b6000602082019050610a6460008301846109bf565b92915050565b6000602082019050610a7f60008301846109ce565b92915050565b600082825260208201905092915050565b6000610aa182610b1e565b9150610aac83610b1e565b9250827fffffffffffffffffffffffffffffffffffffffffffffffffffffffffffffffff03821115610ae157610ae0610bd7565b5b828201905092915050565b6000610af782610afe565b9050919050565b600073ffffffffffffffffffffffffffffffffffffffff82169050919050565b6000819050919050565b600060ff82169050919050565b6000610b4082610b1e565b91507fffffffffffffffffffffffffffffffffffffffffffffffffffffffffffffffff821415610b7357610b72610bd7565b5b600182019050919050565b6000610b8982610b28565b915060ff821415610b9d57610b9c610bd7565b5b600182019050919050565b7f4e487b7100000000000000000000000000000000000000000000000000000000600052600160045260246000fd5b7f4e487b7100000000000000000000000000000000000000000000000000000000600052601160045260246000fd5b7f4e487b7100000000000000000000000000000000000000000000000000000000600052603260045260246000fd5b600080fd5b7f546f74616c20566f746573206576656e74000000000000000000000000000000600082015250565b610c6c81610aec565b8114610c7757600080fd5b50565b610c8381610b1e565b8114610c8e57600080fd5b50565b610c9a81610b28565b8114610ca557600080fd5b5056fea2646970667358221220ba7d9e9c72fd76152b848c107e67dac084d7e725bef58ebd428f31755382b20464736f6c63430008070033",
  "immutableReferences": {},
  "source": "pragma solidity ^0.8.7;\ncontract Election{\n    struct Voter{\n        uint weight ;\n        uint8 vote ;\n        bool isVoted ;\n        bool isRegister;\n    }\n\n    address public organizerAdmin ;\n    mapping(address => Voter) voters ;\n    uint[3] proposals ;\n    uint8 public totalVoters ;\n    uint8 public totalVotes;\n\n    event LogVote (address indexed userAddress, uint8 index);\n    event LogRegister(address toVoter,address registerer);\n    event LogGetTotalVotes(string  msg, uint8 totalVotes);\n    event LogGetTotalVoters(string  msg, uint8 totalVoters);\n\n    modifier onlySupperAdmin(){\n       require(msg.sender == organizerAdmin);\n       totalVoters =0;\n       totalVotes =0;\n       _;\n    }\n\n    constructor() public{\n        organizerAdmin = msg.sender ;\n        voters[organizerAdmin].weight = 1 ;\n        voters[organizerAdmin].isVoted = false ;\n    }\n\n    function Register(address toVoter,address registerer) public {\n        if(voters[toVoter].isVoted || voters[toVoter].isRegister  || registerer != organizerAdmin) {\n            revert() ;\n        } else {\n            voters[toVoter].isVoted = false ;\n            voters[toVoter].isRegister = true;\n            totalVoters++;\n            voters[toVoter].weight = 1 ;\n            emit LogRegister(toVoter,registerer);\n        }\n\n    }\n    function getTotalVoters() public  returns(uint8 _total){\n         _total = totalVoters;\n         emit LogGetTotalVoters( \"Total Votes event\",  totalVoters);\n    }\n\n    function getTotalVotes() public  returns(uint8 _total){\n         _total =  totalVotes;\n         emit LogGetTotalVotes( \"Total Votes event\",  totalVotes);\n    }\n    function getCandidateVote(uint candidateId) public view returns( uint _vote) {\n        assert(msg.sender != organizerAdmin);\n        return proposals[candidateId];\n    }\n    function Vote(uint8 toProposal, address voterAddr) public{\n        Voter memory sender = voters[voterAddr] ;\n        if( sender.isVoted || !sender.isRegister || toProposal>proposals.length || sender.weight == 0)  {\n            revert() ;\n        }else {\n            sender.isVoted = true ;\n            sender.vote = toProposal ;\n            proposals[toProposal] += sender.weight ;\n            voters[voterAddr]  = sender;\n            totalVotes++;\n            emit LogVote(voterAddr,toProposal);\n        }\n\n    }\n\n    function Winner() public view returns(uint _winningProposal){\n        uint winningVoteCount = 0 ;\n        for(uint prop=0;prop<3;prop++){\n            if(proposals[prop] > winningVoteCount){\n                winningVoteCount = proposals[prop] ;\n                _winningProposal = prop ;\n            }\n        }\n    }\n}",
  "sourcePath": "E:/Devendra/BlockChain/Code/e-voting-ethereum/contracts/Election.sol",
  "compiler": {
    "name": "solc",
    "version": "0.8.7+commit.e28d00a7.Emscripten.clang"
  },
  "schemaVersion": "3.4.1",
  "updatedAt": "2021-09-21T17:25:51.406Z",
  "networkType": "ethereum",
  "devdoc": {
    "kind": "dev",
    "methods": {},
    "version": 1
  },
  "userdoc": {
    "kind": "user",
    "methods": {},
    "version": 1
  }
}