{
  "contractName": "HelloWorld",
  "abi": [
    {
      "inputs": [],
      "stateMutability": "nonpayable",
      "type": "constructor"
    },
    {
      "inputs": [],
      "name": "yourName",
      "outputs": [
        {
          "internalType": "string",
          "name": "",
          "type": "string"
        }
      ],
      "stateMutability": "view",
      "type": "function",
      "constant": true
    },
    {
      "inputs": [
        {
          "internalType": "string",
          "name": "nm",
          "type": "string"
        }
      ],
      "name": "setName",
      "outputs": [],
      "stateMutability": "nonpayable",
      "type": "function"
    }
  ],
  "bytecode": "0x608060405234801561001057600080fd5b506040518060400160405280600781526020017f47726f75702d34000000000000000000000000000000000000000000000000008152506000908051906020019061005c929190610062565b50610166565b82805461006e90610105565b90600052602060002090601f01602090048101928261009057600085556100d7565b82601f106100a957805160ff19168380011785556100d7565b828001600101855582156100d7579182015b828111156100d65782518255916020019190600101906100bb565b5b5090506100e491906100e8565b5090565b5b808211156101015760008160009055506001016100e9565b5090565b6000600282049050600182168061011d57607f821691505b6020821081141561013157610130610137565b5b50919050565b7f4e487b7100000000000000000000000000000000000000000000000000000000600052602260045260246000fd5b6104c1806101756000396000f3fe608060405234801561001057600080fd5b5060043610610053576000357c010000000000000000000000000000000000000000000000000000000090048063c47f002714610058578063d97d663014610074575b600080fd5b610072600480360381019061006d919061024d565b610092565b005b61007c6100ac565b60405161008991906102cf565b60405180910390f35b80600090805190602001906100a892919061013a565b5050565b600080546100b9906103a5565b80601f01602080910402602001604051908101604052809291908181526020018280546100e5906103a5565b80156101325780601f1061010757610100808354040283529160200191610132565b820191906000526020600020905b81548152906001019060200180831161011557829003601f168201915b505050505081565b828054610146906103a5565b90600052602060002090601f01602090048101928261016857600085556101af565b82601f1061018157805160ff19168380011785556101af565b828001600101855582156101af579182015b828111156101ae578251825591602001919060010190610193565b5b5090506101bc91906101c0565b5090565b5b808211156101d95760008160009055506001016101c1565b5090565b60006101f06101eb84610316565b6102f1565b90508281526020810184848401111561020c5761020b61046b565b5b610217848285610363565b509392505050565b600082601f83011261023457610233610466565b5b81356102448482602086016101dd565b91505092915050565b60006020828403121561026357610262610475565b5b600082013567ffffffffffffffff81111561028157610280610470565b5b61028d8482850161021f565b91505092915050565b60006102a182610347565b6102ab8185610352565b93506102bb818560208601610372565b6102c48161047a565b840191505092915050565b600060208201905081810360008301526102e98184610296565b905092915050565b60006102fb61030c565b905061030782826103d7565b919050565b6000604051905090565b600067ffffffffffffffff82111561033157610330610437565b5b61033a8261047a565b9050602081019050919050565b600081519050919050565b600082825260208201905092915050565b82818337600083830152505050565b60005b83811015610390578082015181840152602081019050610375565b8381111561039f576000848401525b50505050565b600060028204905060018216806103bd57607f821691505b602082108114156103d1576103d0610408565b5b50919050565b6103e08261047a565b810181811067ffffffffffffffff821117156103ff576103fe610437565b5b80604052505050565b7f4e487b7100000000000000000000000000000000000000000000000000000000600052602260045260246000fd5b7f4e487b7100000000000000000000000000000000000000000000000000000000600052604160045260246000fd5b600080fd5b600080fd5b600080fd5b600080fd5b6000601f19601f830116905091905056fea26469706673582212202d5495982b8f019d35f962943bc2821b0d98e82508dcad86251acd75efd47c8964736f6c63430008070033",
  "immutableReferences": {},
  "source": "pragma solidity ^0.8.7;\r\ncontract HelloWorld {\r\n    string public yourName ;\r\n    constructor () public {\r\n        yourName = \"Group-4\" ;\r\n    }\r\n    function setName(string memory nm) public{\r\n        yourName = nm ;\r\n    }\r\n}",
  "sourcePath": "E:/Devendra/BlockChain/Code/e-voting-ethereum/contracts/HelloWorld.sol",
  "compiler": {
    "name": "solc",
    "version": "0.8.7+commit.e28d00a7.Emscripten.clang"
  },
  "schemaVersion": "3.4.1",
  "updatedAt": "2021-09-24T16:48:00.583Z",
  "networkType": "ethereum",
  "devdoc": {
    "kind": "dev",
    "methods": {},
    "version": 1
  },
  "userdoc": {
    "kind": "user",
    "methods": {},
    "version": 1
  }
}