{
  "contractName": "User",
  "abi": [
    {
      "anonymous": false,
      "inputs": [
        {
          "indexed": true,
          "internalType": "address",
          "name": "userAddress",
          "type": "address"
        },
        {
          "indexed": false,
          "internalType": "uint256",
          "name": "index",
          "type": "uint256"
        },
        {
          "indexed": false,
          "internalType": "bytes32",
          "name": "userEmail",
          "type": "bytes32"
        },
        {
          "indexed": false,
          "internalType": "uint256",
          "name": "userAge",
          "type": "uint256"
        }
      ],
      "name": "LogNewUser",
      "type": "event"
    },
    {
      "anonymous": false,
      "inputs": [
        {
          "indexed": true,
          "internalType": "address",
          "name": "userAddress",
          "type": "address"
        },
        {
          "indexed": false,
          "internalType": "uint256",
          "name": "index",
          "type": "uint256"
        },
        {
          "indexed": false,
          "internalType": "bytes32",
          "name": "userEmail",
          "type": "bytes32"
        },
        {
          "indexed": false,
          "internalType": "uint256",
          "name": "userAge",
          "type": "uint256"
        }
      ],
      "name": "LogUpdateUser",
      "type": "event"
    },
    {
      "inputs": [
        {
          "internalType": "address",
          "name": "userAddress",
          "type": "address"
        }
      ],
      "name": "isUser",
      "outputs": [
        {
          "internalType": "bool",
          "name": "isIndeed",
          "type": "bool"
        }
      ],
      "stateMutability": "view",
      "type": "function",
      "constant": true
    },
    {
      "inputs": [
        {
          "internalType": "address",
          "name": "userAddress",
          "type": "address"
        },
        {
          "internalType": "bytes32",
          "name": "userEmail",
          "type": "bytes32"
        },
        {
          "internalType": "bytes32",
          "name": "password",
          "type": "bytes32"
        },
        {
          "internalType": "uint256",
          "name": "userAge",
          "type": "uint256"
        }
      ],
      "name": "insertUser",
      "outputs": [
        {
          "internalType": "uint256",
          "name": "index",
          "type": "uint256"
        }
      ],
      "stateMutability": "nonpayable",
      "type": "function"
    },
    {
      "inputs": [
        {
          "internalType": "address",
          "name": "userAddress",
          "type": "address"
        }
      ],
      "name": "getUser",
      "outputs": [
        {
          "internalType": "bytes32",
          "name": "userEmail",
          "type": "bytes32"
        },
        {
          "internalType": "uint256",
          "name": "userAge",
          "type": "uint256"
        },
        {
          "internalType": "uint256",
          "name": "index",
          "type": "uint256"
        }
      ],
      "stateMutability": "view",
      "type": "function",
      "constant": true
    },
    {
      "inputs": [
        {
          "internalType": "address",
          "name": "userAddress",
          "type": "address"
        },
        {
          "internalType": "bytes32",
          "name": "userEmail",
          "type": "bytes32"
        }
      ],
      "name": "updateUserEmail",
      "outputs": [
        {
          "internalType": "bool",
          "name": "success",
          "type": "bool"
        }
      ],
      "stateMutability": "nonpayable",
      "type": "function"
    },
    {
      "inputs": [
        {
          "internalType": "address",
          "name": "userAddress",
          "type": "address"
        },
        {
          "internalType": "uint256",
          "name": "userAge",
          "type": "uint256"
        }
      ],
      "name": "updateUserAge",
      "outputs": [
        {
          "internalType": "bool",
          "name": "success",
          "type": "bool"
        }
      ],
      "stateMutability": "nonpayable",
      "type": "function"
    },
    {
      "inputs": [],
      "name": "getUserCount",
      "outputs": [
        {
          "internalType": "uint256",
          "name": "count",
          "type": "uint256"
        }
      ],
      "stateMutability": "view",
      "type": "function",
      "constant": true
    },
    {
      "inputs": [
        {
          "internalType": "uint256",
          "name": "index",
          "type": "uint256"
        }
      ],
      "name": "getUserAtIndex",
      "outputs": [
        {
          "internalType": "address",
          "name": "userAddress",
          "type": "address"
        }
      ],
      "stateMutability": "view",
      "type": "function",
      "constant": true
    }
  ],
  "bytecode": "0x608060405234801561001057600080fd5b50610d1e806100206000396000f3fe608060405234801561001057600080fd5b506004361061009a576000357c0100000000000000000000000000000000000000000000000000000000900480636f77926b116100785780636f77926b1461012f57806381f1d75c14610161578063b5cb15f714610191578063ffcc7bbf146101af5761009a565b80631045933a1461009f5780632e071db3146100cf5780634209fff1146100ff575b600080fd5b6100b960048036038101906100b491906109bc565b6101df565b6040516100c69190610b39565b60405180910390f35b6100e960048036038101906100e49190610a23565b610484565b6040516100f69190610ae7565b60405180910390f35b6101196004803603810190610114919061094f565b6105c1565b6040516101269190610ae7565b60405180910390f35b6101496004803603810190610144919061094f565b61068f565b60405161015893929190610b02565b60405180910390f35b61017b6004803603810190610176919061097c565b61077e565b6040516101889190610ae7565b60405180910390f35b6101996108bb565b6040516101a69190610b39565b60405180910390f35b6101c960048036038101906101c49190610a63565b6108c8565b6040516101d69190610acc565b60405180910390f35b60006101ea856105c1565b6101f7576101f6610c11565b5b846001600086815260200190815260200160002060006101000a81548173ffffffffffffffffffffffffffffffffffffffff021916908373ffffffffffffffffffffffffffffffffffffffff160217905550836000808773ffffffffffffffffffffffffffffffffffffffff1673ffffffffffffffffffffffffffffffffffffffff16815260200190815260200160002060000181905550826000808773ffffffffffffffffffffffffffffffffffffffff1673ffffffffffffffffffffffffffffffffffffffff16815260200190815260200160002060010181905550816000808773ffffffffffffffffffffffffffffffffffffffff1673ffffffffffffffffffffffffffffffffffffffff168152602001908152602001600020600201819055506002859080600181540180825580915050600190039060005260206000200160009091909190916101000a81548173ffffffffffffffffffffffffffffffffffffffff021916908373ffffffffffffffffffffffffffffffffffffffff16021790555060016002805490506103909190610b8b565b6000808773ffffffffffffffffffffffffffffffffffffffff1673ffffffffffffffffffffffffffffffffffffffff168152602001908152602001600020600301819055508473ffffffffffffffffffffffffffffffffffffffff167f57f7301fe8e6f5b36f73ccce215bfaee0be1dda153d32992eb9ac05da86686116000808873ffffffffffffffffffffffffffffffffffffffff1673ffffffffffffffffffffffffffffffffffffffff16815260200190815260200160002060030154868560405161046093929190610b54565b60405180910390a2600160028054905061047a9190610b8b565b9050949350505050565b600061048f836105c1565b1561049d5761049c610c11565b5b816000808573ffffffffffffffffffffffffffffffffffffffff1673ffffffffffffffffffffffffffffffffffffffff168152602001908152602001600020600201819055508273ffffffffffffffffffffffffffffffffffffffff167f24659ed7fa20faefd192de94aa063d3b6e668e49b0ca2738ca4d866db1ae9eee6000808673ffffffffffffffffffffffffffffffffffffffff1673ffffffffffffffffffffffffffffffffffffffff168152602001908152602001600020600301546000808773ffffffffffffffffffffffffffffffffffffffff1673ffffffffffffffffffffffffffffffffffffffff16815260200190815260200160002060000154856040516105af93929190610b54565b60405180910390a26001905092915050565b60008060028054905014156105d9576000905061068a565b8173ffffffffffffffffffffffffffffffffffffffff1660026000808573ffffffffffffffffffffffffffffffffffffffff1673ffffffffffffffffffffffffffffffffffffffff168152602001908152602001600020600301548154811061064557610644610c6f565b5b9060005260206000200160009054906101000a900473ffffffffffffffffffffffffffffffffffffffff1673ffffffffffffffffffffffffffffffffffffffff161490505b919050565b600080600061069d846105c1565b156106ab576106aa610c11565b5b6000808573ffffffffffffffffffffffffffffffffffffffff1673ffffffffffffffffffffffffffffffffffffffff168152602001908152602001600020600001546000808673ffffffffffffffffffffffffffffffffffffffff1673ffffffffffffffffffffffffffffffffffffffff168152602001908152602001600020600201546000808773ffffffffffffffffffffffffffffffffffffffff1673ffffffffffffffffffffffffffffffffffffffff168152602001908152602001600020600301549250925092509193909250565b6000610789836105c1565b1561079757610796610c11565b5b816000808573ffffffffffffffffffffffffffffffffffffffff1673ffffffffffffffffffffffffffffffffffffffff168152602001908152602001600020600001819055508273ffffffffffffffffffffffffffffffffffffffff167f24659ed7fa20faefd192de94aa063d3b6e668e49b0ca2738ca4d866db1ae9eee6000808673ffffffffffffffffffffffffffffffffffffffff1673ffffffffffffffffffffffffffffffffffffffff16815260200190815260200160002060030154846000808873ffffffffffffffffffffffffffffffffffffffff1673ffffffffffffffffffffffffffffffffffffffff168152602001908152602001600020600201546040516108a993929190610b54565b60405180910390a26001905092915050565b6000600280549050905090565b6000600282815481106108de576108dd610c6f565b5b9060005260206000200160009054906101000a900473ffffffffffffffffffffffffffffffffffffffff169050919050565b60008135905061091f81610ca3565b92915050565b60008135905061093481610cba565b92915050565b60008135905061094981610cd1565b92915050565b60006020828403121561096557610964610c9e565b5b600061097384828501610910565b91505092915050565b6000806040838503121561099357610992610c9e565b5b60006109a185828601610910565b92505060206109b285828601610925565b9150509250929050565b600080600080608085870312156109d6576109d5610c9e565b5b60006109e487828801610910565b94505060206109f587828801610925565b9350506040610a0687828801610925565b9250506060610a178782880161093a565b91505092959194509250565b60008060408385031215610a3a57610a39610c9e565b5b6000610a4885828601610910565b9250506020610a598582860161093a565b9150509250929050565b600060208284031215610a7957610a78610c9e565b5b6000610a878482850161093a565b91505092915050565b610a9981610bbf565b82525050565b610aa881610bd1565b82525050565b610ab781610bdd565b82525050565b610ac681610c07565b82525050565b6000602082019050610ae16000830184610a90565b92915050565b6000602082019050610afc6000830184610a9f565b92915050565b6000606082019050610b176000830186610aae565b610b246020830185610abd565b610b316040830184610abd565b949350505050565b6000602082019050610b4e6000830184610abd565b92915050565b6000606082019050610b696000830186610abd565b610b766020830185610aae565b610b836040830184610abd565b949350505050565b6000610b9682610c07565b9150610ba183610c07565b925082821015610bb457610bb3610c40565b5b828203905092915050565b6000610bca82610be7565b9050919050565b60008115159050919050565b6000819050919050565b600073ffffffffffffffffffffffffffffffffffffffff82169050919050565b6000819050919050565b7f4e487b7100000000000000000000000000000000000000000000000000000000600052600160045260246000fd5b7f4e487b7100000000000000000000000000000000000000000000000000000000600052601160045260246000fd5b7f4e487b7100000000000000000000000000000000000000000000000000000000600052603260045260246000fd5b600080fd5b610cac81610bbf565b8114610cb757600080fd5b50565b610cc381610bdd565b8114610cce57600080fd5b50565b610cda81610c07565b8114610ce557600080fd5b5056fea2646970667358221220cb0411a537c2cb1ce5d3fa9daa81e0a4670e29f55668133bbe4790612f4dac5d64736f6c63430008070033",
  "immutableReferences": {},
  "source": "pragma solidity ^0.8.7;\r\n\r\ncontract User {\r\n\r\n  struct UserStruct {\r\n    bytes32 userEmail;\r\n    bytes32 password;\r\n    uint userAge;\r\n    uint index;\r\n  }\r\n  \r\n  mapping(address => UserStruct) private userStructs;\r\n  mapping(bytes32 => address) private userAddressFromEmail;\r\n  address[] private userIndex;\r\n\r\n  event LogNewUser (address indexed userAddress, uint index, bytes32 userEmail, uint userAge);\r\n  event LogUpdateUser(address indexed userAddress, uint index, bytes32 userEmail, uint userAge);\r\n  \r\n  function isUser(address userAddress) public view returns(bool isIndeed) \r\n  {\r\n    if(userIndex.length == 0) return false;\r\n    return (userIndex[userStructs[userAddress].index] == userAddress);\r\n  }\r\n\r\n  function insertUser(\r\n    address userAddress, \r\n    bytes32 userEmail, \r\n    bytes32 password, \r\n    uint    userAge) \r\n    public\r\n    returns(uint index)\r\n  {\r\n    assert(isUser(userAddress)) ;\r\n    userAddressFromEmail[userEmail] = userAddress;\r\n    userStructs[userAddress].userEmail = userEmail;\r\n    userStructs[userAddress].password = password;\r\n    userStructs[userAddress].userAge   = userAge;\r\n    userIndex.push(userAddress);\r\n    userStructs[userAddress].index     = userIndex.length -1;\r\n    emit LogNewUser(userAddress, userStructs[userAddress].index, userEmail, userAge);\r\n    return userIndex.length-1;\r\n  }\r\n  \r\n  function getUser(address userAddress) public view returns(bytes32 userEmail, uint userAge, uint index)\r\n  {\r\n    assert(!isUser(userAddress));\r\n    return(\r\n      userStructs[userAddress].userEmail, \r\n      userStructs[userAddress].userAge, \r\n      userStructs[userAddress].index);\r\n  } \r\n  \r\n  function updateUserEmail(address userAddress, bytes32 userEmail) public returns(bool success) \r\n  {\r\n    assert(!isUser(userAddress)); \r\n    userStructs[userAddress].userEmail = userEmail;\r\n    emit LogUpdateUser(\r\n      userAddress, \r\n      userStructs[userAddress].index,\r\n      userEmail, \r\n      userStructs[userAddress].userAge);\r\n    return true;\r\n  }\r\n\r\n  function updateUserAge(address userAddress, uint userAge)public returns(bool success) {\r\n    assert(!isUser(userAddress)) ; \r\n    userStructs[userAddress].userAge = userAge;\r\n    emit LogUpdateUser(\r\n      userAddress, \r\n      userStructs[userAddress].index,\r\n      userStructs[userAddress].userEmail, \r\n      userAge);\r\n    return true;\r\n  }\r\n\r\n  function getUserCount() public view returns(uint count){\r\n    return userIndex.length;\r\n  }\r\n\r\n  function getUserAtIndex(uint index) public view returns(address userAddress){\r\n    return userIndex[index];\r\n  }\r\n\r\n}",
  "sourcePath": "E:/Devendra/BlockChain/Code/e-voting-ethereum/contracts/User.sol",
  "compiler": {
    "name": "solc",
    "version": "0.8.7+commit.e28d00a7.Emscripten.clang"
  },
  "schemaVersion": "3.4.1",
  "updatedAt": "2021-09-21T17:25:51.426Z",
  "networkType": "ethereum",
  "devdoc": {
    "kind": "dev",
    "methods": {},
    "version": 1
  },
  "userdoc": {
    "kind": "user",
    "methods": {},
    "version": 1
  }
}